:020000040800F2
:100000007808002035020008413E000875390008D4
:100010003D3E00088515000855410008000000001D
:10002000000000000000000000000000493E000841
:100030008915000800000000453E00084D3E0008FC
:100040004F0200084F0200084F0200084F0200084C
:100050004F0200084F0200084F0200084F0200083C
:100060004F0200084F0200084F0200084F0200082C
:100070004F0200084F0200084F0200084F0200081C
:100080004F0200084F0200084F0200084F0200080C
:100090004F0200084F0200084F0200084F020008FC
:1000A0004F0200084F0200084F0200084F020008EC
:1000B0004F0200084F0200084F0200084F020008DC
:1000C0004F0200084F0200084F0200084F020008CC
:1000D0004F020008494100084F0200084F02000883
:1000E0004F0200084F0200084F02000800F002F81B
:1000F00000F090F80AA090E8000C82448344AAF132
:100100000107DA4501D100F085F8AFF2090EBAE82F
:100110000F0013F0010F18BFFB1A43F0010318473B
:100120004459000064590000103A24BF78C878C1CF
:10013000FAD8520724BF30C830C144BF04680C60ED
:10014000704700000023002400250026103A28BF35
:1001500078C1FBD8520728BF30C148BF0B60704739
:100160006E2900F0B381702900F0F582662905F050
:100170009783652905F09483672905F091836129A8
:1001800005F0908303681B0A28BF41F080016929AC
:1001900000F06081642900F05D81752900F05A81CA
:1001A0006F2900F08382782900F0C182E92900F0EC
:1001B0001D82E42900F01A82F52900F01782EF2948
:1001C00000F08082F82900F0C0820368DB0928BFB4
:1001D00041F08001632901F02780732901F02C8010
:1001E000E32901F03780F32901F03C8000207047BB
:1001F0001FB501F0F1F804000020002105F08AF895
:10020000401C60600020002105F09AF8E0601FBDEE
:1002100010B510BD01F0BBF81146FFF7E9FF04F07F
:100220001FF901F09DF903B4FFF7F2FF03BC01F0E1
:10023000A1F900000948804709480047FEE7FEE7AA
:10024000FEE7FEE7FEE7FEE7FEE7FEE7FEE7FEE786
:1002500004480549054A064B70470000513E000816
:10026000ED000008780200207808002078040020C3
:10027000780400201CB50C46064B7B446946009070
:10028000204600F03CF904460020694600F04AF997
:1002900020461CBDA702000070B5064600F074F8A9
:1002A0000468054630460A22002100F023FB2C603A
:1002B00070BD0000014A00F055BB000000000020A6
:1002C00010B5431C02E010F8011B71B18107FAD18F
:1002D0004FF0013202C88C1A8C4314EAC211F9D0D3
:1002E000C01A0A0603D0C01E10BDC01A10BD0A04F1
:1002F00001D0801E10BD0902FCD0401E10BD0000C0
:100300004FF0013C50F8042B51F8043B9A4221D1A4
:10031000A2EB0C03934313EACC1317D150F8042B30
:1003200051F8043B9A4215D1A2EB0C03934313EA14
:10033000CC130BD150F8042B51F8043B9A4209D14D
:10034000A2EB0C03934313EACC13DBD04FF0000075
:10035000704700BFD01A01BAB1FA81F101F018015B
:1003600022FA01F0CB40DBB2C0B2C01AC1F12001C9
:100370002CFA01F3D11A914311EAC311E6D1704767
:1003800070477047704700000048704768000020C1
:1003900070B5044685690068C10601D5302600E0C5
:1003A0002026C00707D070BDD4E901213046904710
:1003B000206A401C20626D1EF6D570BD70B50446E3
:1003C00085690078C00707D170BDD4E901212020DC
:1003D0009047206A401C20626D1EF6D570BD0968EA
:1003E0004A0501D540B27047C905FCD500B2704737
:1003F00009684A0501D5C0B27047C905FCD580B26D
:10040000704770B50C460546012A05D0287880064D
:1004100000D5EA69002302E0012305E05B1C93425A
:1004200002D2E05C0028F9D1A869E618C01AA861D8
:10043000286A184428622846FFF7AAFF04E0D5E995
:10044000012114F8010B9047B442F8D32846FFF776
:10045000B5FF70BD2DE9F0410646002410687529EE
:10046000314616A510D0FFF7BAFF002802DA404245
:1004700013A507E031688A0701D512A502E04907F4
:1004800004D511A5012401E0FFF7B2FF00210A22E3
:1004900006F1240709E0B0FBF2FCB0FBF2F302FB2B
:1004A0001C00303078541846491C0028F3D12346EC
:1004B0002A463046BDE8F04100F0C7BA000000000F
:1004C0002D0000002B0000002000000011680268D1
:1004D000006A530501D508700AE0D30501D50880EC
:1004E00006E0130603D5C217C1E9000200E0086068
:1004F0000120704701694A1C02610878704700B505
:100500008FB0CDE901310021059105497944CDE94C
:1005100003101146684600F029F90FB000BD000035
:10052000E5FFFFFF0A6802F8010B0A607047000050
:100530002DE9FF5F15468A460446DFF8AC80F84493
:100540000027D8E900103E46CDE9001010E03AF847
:1005500016106A4602A800F0D8FE411C07D0217888
:10056000890603D5E269391891420DD80744761CF3
:100570002078800602D5E069B84205DDAE42E6DBB0
:100580003AF816000028E2D1A069C01BA0612046FD
:10059000FFF7FEFED8E90010CDE90010002017E0BB
:1005A0003AF818106A4602A800F0AFFEB0F1FF3F1B
:1005B00081460BD000250DF1080B05E0D4E901219F
:1005C0001BF8050090476D1C4D45F7D308F101005D
:1005D000B0428046E4DB206A384420622046FFF7C0
:1005E000EDFEBDE8FF9F0000665300002DE9F041DD
:1005F0008046D21D22F007020025D2E90002F5292B
:1006000015A614D0011E72F1000106DA0023D0EB0A
:10061000030063EB020211A608E0D8F800108B0774
:1006200001D50FA602E0490701D50EA60125114606
:10063000002408F1240704E000F0C2F930323A55F2
:10064000641C50EA0102F7D12B463246214640464F
:10065000BDE8F04100F0F9B9000000002D000000F5
:100660002B0000002000000030B4002100F1240421
:1006700008E002F00705D208303542EA4372DB0891
:100680006554491C52EA0305F3D10468002310A203
:10069000250708D504F020040C4304D0C4690123C5
:1006A0000CA2641EC46130BC00F0CFB910B5044682
:1006B00021461068FFF79CFE02462046BDE8104028
:1006C0000023D1E7D21D22F00701D1E90023CBE7B7
:1006D0000000000030000000F0B40D46018809055C
:1006E00002D5214C7C4402E01F4C7C440E34002196
:1006F00000F1240608E002F00F071209E75D42EA64
:1007000003721B097754491C52EA0307F3D102789C
:100710000023120704D5702D06D009B1022311342D
:100720002246F0BC00F091B901231034F8E770B50F
:1007300004460D4621461068FFF75AFE0246294638
:100740002046BDE870400023C6E7D21D22F0070313
:10075000D3E90023C0E70368126843F02003036075
:100760000823C3610023B7E7C85100002DE9F05FFB
:10077000894604464FF0000ADFF874B1FB44C0F824
:1007800020A02046E1688847002874D0252806D09C
:10079000D4E901219047206A401C2062F1E700263D
:1007A0005F462046E16888472028054607DB312D53
:1007B00005D2781910F8200C08B10643F1E7B0070C
:1007C00001D526F00406C4F81CA00027C4F818A020
:1007D0002A2D09D0284604F095FD38B304EB87088C
:1007E000303DC8F8185019E059F8041B204604EBB6
:1007F00087029161E1688847012F054618D1E069B9
:10080000002820DA26F020061DE0D8F8180000EBBA
:10081000800005EB40003038C8F818002046E16839
:100820008847054604F06EFD0028EED1012F0AD05E
:100830002E2D08D12046E16888477F1C0546022FEF
:1008400046F02006C4DBA069002803DA404246F0E7
:100850000106A061F00701D026F010066C2D0BD028
:10086000682D09D04C2D39D06A2D35D0742D35D056
:100870007A2D33D016E038E0E1682F4620468847CD
:10088000B842054609D16C2F26D04FF48060E1684C
:10089000064320468847054604E06C2F1AD04FF4E3
:1008A000807006430DB3A5F14100192802D8203508
:1008B00046F400664A462946204626604E46FFF723
:1008C0004FFC80B101280BD0F61D26F0070000F187
:1008D000080956E74020E4E78020D8E70020D6E763
:1008E00006F104094DE7284652E7206ABDE8F09F6B
:1008F000585100002DE9F04791460F4680460446C6
:10090000002614F8015B2DB100F052F80068405D3C
:10091000C007F6D12B2D02D02D2D18D0641E4A46CB
:100920003946204600F0A2FC27B13968A14201D126
:10093000C7F800804FF0020471050BD54042002833
:1009400003DDFFF721FD0460A007BDE8F08746F452
:100950008066E4E70028F8DAFFF716FD04606FF020
:100960000040F2E72DE9F04115460E46040002D1A1
:100970002C6804B90BA4204600F0FBFC044420784A
:1009800070B127463146384600F0E3FC0444207835
:1009900010B1002004F8010B38462C60BDE8F0814E
:1009A0000027F9E7000000000048704768000020B9
:1009B00010B500F011FD001D10BD00BF5949000029
:1009C00030B5B0F10A0271F100034FEA900E4EEA21
:1009D000817EB0EB0E0061EB91014FEA101E4EEAF2
:1009E000017E10EB0E0041EB11114FEA102E4EEA82
:1009F000016E10EB0E0041EB11214FEA104E4EEA52
:100A0000014E10EB0E0041EB1141401841F1000185
:100A10004FEAD00040EA41704FEAD1014FEA810429
:100A200044EA907410EB800544EB01046D1944EB2B
:100A30000404521BA3414FF0000348BF0A3200D503
:100A400030BD401C41F1000130BD2DE9F0470D469D
:100A500099469246044600F124080168880604D5A8
:100A6000E06921F01001216000E00120A84201DDD1
:100A7000471B00E00027A1697A1902EB0900081A58
:100A8000A0612078C00602D42046FFF781FC002632
:100A900008E0D4E901211AF806009047206A401CBA
:100AA000761C20624E45F4DB2078C0060AD520462D
:100AB000FFF76EFC06E0D4E9012130209047206A60
:100AC000401C2062381EA7F10107F4DC07E0D4E9DE
:100AD000012118F805009047206A401C2062281E5A
:100AE000A5F10105F3DC2046FFF768FC207800063D
:100AF00002D50220BDE8F0870120FBE72DE9FF4F7A
:100B00000C461E464FF0FF378BB0D2E90001DDF8EE
:100B100060800A908A46C1F30A5505B93D46002116
:100B200008464FF00000BAF1000F00F4400005DA6B
:100B300000EB80004FF4400101EA50004FEA905969
:100B4000B9F1010F00DDB9460A9850EA4A000ED00B
:100B500044F61050A5F2FF3545432F14B8F1000FAD
:100B60001ED07542291E1EDDC9F100021CE0B8F13D
:100B7000010F4FF0000001D0302103E0F24305E007
:100B80002154401CB042FBDB30460022002121549E
:100B90000B99C1F80880C1E900200FB0BDE8F08FC3
:100BA000BD1B6D1CDEE74A4600DA694206A800F06C
:100BB00065FC06AB93E8070003AB83E807005046EB
:100BC0000A9903F0C2FF8DE80700A0F500501F3816
:100BD00000900398002D0ADD42F21F014A460844A6
:100BE000002303A90390684604F02CFA09E0A0F55D
:100BF00000504A461F38002303A90390684604F0BA
:100C000036FA8DE807000004000C03D04FF0FF30E7
:100C1000410800E01046B8F1000F03D00022009216
:100C200015461EE0751E05D4FFF7CAFE3032625528
:100C30006D1EF9D5B3460122084302D000227F1C65
:100C400004E02078302801D100227F1E002A099775
:100C500084D01DE0112D07DAFFF7B2FE3032625565
:100C60006D1C50EA0102F5D1084302D00098C8B1CA
:100C70000EE00021681E05E0235C625C6354225490
:100C8000401E491C8142F7DBAB46A81B401E099061
:100C9000002004F80B000B98099AC0F80880C0E9FE
:100CA000002B7AE711264FF0000857E72DE9F04FA7
:100CB00088460446D21D22F0070191B0D1E9000117
:100CC000CDE90A0104F00AFB02460B98C00F01D0DF
:100CD0002D2007E02068810701D52B2002E020218C
:100CE00001EAC000032A099001D0072A05DB034668
:100CF0004146204600F074FB0BE12078800601D5C8
:100D0000E06900E00620B8F1650F814606D0B8F131
:100D1000660F18D0B8F1670F70D131E00020B9F13B
:100D2000110F009001DB112301E009F101030AAA70
:100D300001A90CA8FFF7E2FEDDE90C70002609F11D
:100D40000105834647E001204B4600904FF00047E5
:100D50000AAA01A90CA8FFF7D1FEDDE90DB00C9994
:100D60005D46002610B909F101000D18B9EB050028
:100D700003D4C0F1FF3609F10105A5EB09002BE012
:100D8000B9F1010F01DA4FF001090020B9F1110F9B
:100D90000090484601DD112300E003460AAA01A99C
:100DA0000CA8FFF7ABFEDDE90C704D46002683462C
:100DB000207800070AD4AB4500DA5D4601A8012D72
:100DC00004DD411911F8011C302907D04F4502DA22
:100DD00017F1040F04DA012082460FE06D1EEEE7E2
:100DE000002F02DCED1B3E4403E0781CA84200DD2E
:100DF0007D1CB81B00F1010A4FF000472078000766
:100E000003D4AA4501DB4FF0FF3A0021B7F1004FB0
:100E10000DF143088DF8431024D002202B23002F1E
:100E200001DA7F422D230A21021EA0F1010000DC1D
:100E30005FB197FBF1FC97FBF1F201FB1C7C1746BD
:100E40000CF1300C08F801CDEEE7A8F101000370B9
:100E50002188090501D5452100E06521A0F101089F
:100E600000F8011C09980FA9A1EB0807FF1D00B1AC
:100E70000120411901EBEA70A1693844081A401EAB
:100E8000A0612078C00602D42046FFF781FA0998B5
:100E900028B1D4E901219047206A401C20622078C3
:100EA000C00622D52046FFF773FA1EE0002E04DBB1
:100EB000B34502DD01A8805D00E03020D4E90121C6
:100EC0009047206A401C2062761CAAF101005FEA6C
:100ED000000A0AD100F080FAC0680168405CD4E9D9
:100EE00001219047206A401C2062281EA5F10105BF
:100EF000DCDC07E0D4E9012118F8010B9047206AF7
:100F0000401C2062381EA7F10107F3DC2046FFF7E2
:100F100055FA032011B041E62DE9F04F04460D4685
:100F2000D21D22F0070089B0D0E900974846394623
:100F300004F0D4F90246F80F01D02D2307E0206811
:100F4000810701D52B2302E0202101EAC0038DF89F
:100F500020300BB1012000E00020032A824601D09E
:100F6000072A04DB2946204600F03AFA3FE12078C0
:100F7000800601D40D2500E0E569C7F30A560D2D62
:100F800049DA00214FEA175B08464FF00000002FB6
:100F900000F4400007DA00EB80004FF4400100EB62
:100FA000D07001EA60008115012901DD4FF0FF31A9
:100FB00000224FEA850CBCF1180F06D31346ACF1A2
:100FC00018004FF08052C24003E04FF4801323FA20
:100FD0000CF30CF10C0CBCF1200F04D3ACF1200C81
:100FE00009FA0CF001E007FA0CF000294FF0004874
:100FF00001DD18B90FE00ED140450CD319EB020901
:101000005F4121B9404502D19F4329EA0209BBEB68
:10101000175F00D0761C2088000502D57B487844F5
:1010200002E07A487844193808AA302302F80A30D6
:10103000037C0AF10101002E0AF1020A53546A46A8
:1010400002DC4FF0300101E04FF031014FF00108B8
:101050008DF8001002D0A6F2FF3603E059EA4701EE
:1010600000D06B4E002D02DC2178090704D54FF02B
:1010700002082E218DF80110C44600210BE0C7F3B1
:1010800003433F01C35C491C6D1E02F8083005296B
:1010900008F1010801DA002DF1DC00210CE000EB81
:1010A0001973491C1B786D1E082902F808304FEA95
:1010B000091908F1010801DA002DF0DC21688B061E
:1010C00002D516E0A8F10108E04505DD02EB0803B2
:1010D00013F8013C302BF5D0B8F1000F09DD02EB1D
:1010E000080313F8013C2E2B03D1090701D4A8F102
:1010F0000108002D05DD3E2102F808106D1E08F1E3
:101100000108407C002E02F8080008F1010804DA0A
:101110002D20764202F8080002E02B2002F8080099
:101120000A214FF47A70864208F101080BDB96FB26
:10113000F0F3303302F8083096FBF0F308F10108C1
:1011400000FB136601E0642E0CDB642096FBF0F3D9
:10115000303302F8083096FBF0F308F1010800FB89
:10116000136601E00A2E06DB96FBF1F0303002F840
:10117000080008F1010896FBF1F001FB1060303027
:1011800002F80800A16908F1010808EB050202EB6A
:101190000A00081AA0612078C00602D42046FFF792
:1011A000F7F8216A08AE01EB0A00206204E0D4E9F6
:1011B000012116F8010B9047BAF1010AF7D2207805
:1011C000C00602D52046FFF7E3F86E4609E016F8A0
:1011D000010B3E280FD0D4E901219047206A401C22
:1011E0002062B8F10108F2D22046FFF7E7F809B013
:1011F0000320BDE8F08F206A2844206203E0D4E990
:101200000121302090476D1EEBD3F8E7DA4800004B
:1012100002FCFFFF10B5436913B1AFF3008001E09A
:10122000FFF7EFF8012010BD127800F124010A70D9
:1012300000224A700122EDE711684FF0FF32E9E722
:1012400010B5436913B1AFF3008001E0FFF770F907
:10125000012010BD128800F1240182840022C28482
:101260000122EDE711684FF0FF32E9E72DE9F05F69
:10127000824615468B4600270AF10104B9460078DC
:10128000302801D09DB113E014F8010B0127782814
:1012900003D0582801D045B10AE00DB1102D07D177
:1012A000002714F8010B102502E0082500E00A25AC
:1012B0000026B0460EE005FB080005FB06F10127FD
:1012C0001FFA80F801EB1046B6F5803F00D3B9460F
:1012D00014F8010B294600F0C3F80028EBDABBF143
:1012E000000F05D00FB1641E00E05446CBF800405B
:1012F000B9F1000F06D0FFF747F802210160C81EC0
:10130000BDE8F09F48EA0640FAE72DE9F0411646AD
:101310000C460546FFF74CFB036893F801010128D2
:1013200007D0FF2C12D8185D80B101202C70BDE8C9
:10133000F081D3F807013246214603F20713C7189C
:101340002846BC46BDE8F041002360474FF0FF301F
:10135000EDE730B503461D781DB10A4603E0AC4207
:1013600001D1181A30BD12F8014B002CF7D15B1CCB
:10137000F1E730B503461D783DB10A4612F8014B3E
:101380001CB1AC42FAD15B1CF5E7181A30BD7546AA
:10139000FFF70AFBAE4605006946534620F00700FA
:1013A000854618B020B5FEF753FFBDE820404FF04A
:1013B00000064FF000074FF000084FF0000BAC465E
:1013C000ACE8C009ACE8C009ACE8C009ACE8C009A9
:1013D00021F007018D4670470048704788000020C3
:1013E0002DE9F0411F46044603260168072A01F44F
:1013F000006004DB08B116A505E016A503E008B1FE
:1014000015A500E015A521F010002060A069C01E00
:10141000A0610FB1401EA0612046FEF7B9FF4FB199
:10142000D4E9012138469047206A401C2062C01C44
:10143000206206E0206AFAE7D4E9012115F8010BE1
:101440009047761EF8D22046FEF7B8FFBDE8F0813F
:101450004E414E006E616E00494E4600696E660058
:101460003A2800D2303820F02002412A01D3A2F1DC
:101470003700884201D34FF0FF3070472DE9F04725
:10148000814616468AB0354878440DC88DE80D006F
:1014900032487844801C03AC0DC884E80D0041F646
:1014A0009B300844372190FBF1F290FBF1F5A5F158
:1014B000800501FB12041B3C02D56442012000E0C0
:1014C0000020DFF898A080460027FA44AAF1BE0A5F
:1014D0000EE0E0070AD03246684607EB47010123D9
:1014E0000AEB810103F0C3FD8DE8070064107F1C47
:1014F000002CEED1194F7F44AE3F19E0E80715D01C
:1015000007EB04100DF1180A90E80E008AE80E00AF
:10151000C068F04201D1981908903246012306A90B
:1015200003A803F0A4FD03AB83E807006D10641C5F
:10153000002DE3D14FF0010332466946B8F1000FA8
:1015400003A802D003F07EFD01E003F090FDC9E99D
:101550000001C9F808200AB0BDE8F0870045000086
:1015600010B50446AFF300802046BDE81040FEF7FA
:101570005ABE000001491820ABBEFEE7260002005B
:1015800070470000FEE7000070470000014690F839
:101590002100022816D10868D1E90FC3026822F0A1
:1015A0000E020260026822F001020260012000FACD
:1015B00003F2CCF8042081F821000020002281F8F9
:1015C00020207047042088630120002281F8202019
:1015D0007047000080B590F82110022924D10268DC
:1015E000116821F00E0111602F211368C4F202016D
:1015F0008A4240F20401C4F2020123F001031360A5
:1016000016DD3023C4F202039A421DD04423C4F2F3
:1016100002039A421CD05823C4F202039A421DD1FD
:101620004FF4803322E000BF04218163012080BD9C
:101630000823C4F202039A420ED01C23C4F2020310
:101640009A420BD1102311E04FF480730EE000BFDB
:101650004FF480530AE000BF012307E001F1680C5A
:101660004FF08073624508BF4FF480130B60012177
:1016700080F82110426B002180F820100AB19047B9
:101680000021084680BD0000B0B5044600F024F9F2
:10169000054640F20400C2F200000078611C18BF49
:1016A000044400BF00F018F9401BA042FAD3B0BDBB
:1016B0002DE9F04F82B00E68002E00F0038141F258
:1016C0000042C4F20102042340F2004E904208BFDF
:1016D00003234FF6FF7CC4F2010E00930024012384
:1016E000C1F2100C4FF0000A4FF0000949E000BFB2
:1016F000012704F00C030F229A402BEA020207FA9A
:1017000003F34FEA9A051A4346F82520D1F804B0AE
:1017100040F20C455FEACB22DEF8082054BF22EAF3
:10172000080242EA0802C4F20105CEF808202A683D
:101730005FEA8B2354BF22EA080242EA08022A60C9
:101740005FEA8B33DEF8042054BF22EA080242EA43
:1017500008025FEACB33CEF80420DEF800204FF019
:10176000010354BF22EA080242EA0802CEF8002030
:101770000E680AF1010A36FA0AF204F1040400F0D4
:10178000A18003FA0AF816EA080FF1D04E68664500
:1017900012DC122E56D8DFE806F0350B45495555B8
:1017A00055555555555555555555554D510000BF35
:1017B000D1F80C9046E000BF4FF6FF72C1F2210253
:1017C00096420FDC0022C1F2110296421AD000228A
:1017D000C1F21202964215D00022C1F221029642B5
:1017E00010D02FE00022C1F2220296420AD000223D
:1017F000C1F23102964205D00022C1F23202964275
:1018000020D100BF8A684AB1012A14BFC0F81480F1
:10181000C0F810804FF0080914E000BF4FF0040931
:1018200010E000BFCA6802F108090BE04FF00009A0
:1018300008E000BFCA6802F1040903E0CA6802F1C7
:101840000C0900BF22460646BAF1080F24BF203A11
:10185000043637680F25954027EA050509FA02F294
:101860002A433260CA79D2067FF582AF41F218036B
:10187000C4F202031A68AEF57E7642F001021A60E5
:101880001A6802F001020192019A2AF0030256F846
:1018900002B040F60002C4F20102904210D040F6BD
:1018A0000042C4F2010290423FF422AF41F2000232
:1018B000C4F20102009F904208BF022719E700BF4F
:1018C000002716E702B0BDE8F08F0000002A08BF2D
:1018D000090401617047000040F27420C2F2000068
:1018E0000068704770B5B8B3044690F83D0028B959
:1018F000002084F83C00204600F098FB242084F867
:101900003D002068016821F001010160016841F497
:1019100000410160016821F40041016000F050FDC8
:1019200048F28041C0F21E0140F60013D4F804E0F2
:1019300088424FF00001C0F23D0348F2A16C4FF025
:10194000000238BF01219842C0F2010C38BF0122C9
:10195000E64538BF0A460AB1012070BD4DF68361E5
:10196000C4F21B31A0FB01122168950C4B684FF4A7
:10197000967623F03F0343EA9243754344F6D356E9
:101980004B60C1F262060B6AA5FB0656B50923F04F
:101990003F03E64538BF950C6A1C1A430A62CA69C0
:1019A00048F2A0664CF6FF73C0F20106B64522EA83
:1019B00003020BD801384FEA4E03B0FBF3F00130BD
:1019C0006FF31F30042898BF04201EE0A36801387D
:1019D00063B119230EFB03F3B0FBF3F001306FF397
:1019E0001F3078B100F5804008E000BF0EEB4E03D9
:1019F000B0FBF3F001306FF31F3028B100F5004069
:101A000003E000BF012000E001201043C861086826
:101A1000D4E9072320F0C000104318430860886809
:101A200048F2FF3204F10C0690434CCE18431043A9
:101A3000A5698860C86820F0FF0030432843C8606B
:101A4000086840F00100086000202021206484F82C
:101A50003D10206384F83E0070BD00002DE9F04782
:101A600084B0044600201F46164689460290FFF7C0
:101A700033FF94F83D10202920D10546206800BF8F
:101A80008169890716D5FFF727FF411B20681A29AE
:101A9000F6D381698907F3D500202021206384F8DB
:101AA0003D1084F83E00216C41F02001216484F84F
:101AB0003C0003E094F83C10012903D1022004B05B
:101AC000BDE8F087012184F83C100168C90703D103
:101AD000016841F0010101600168DDF8308021F406
:101AE00000610160222184F83D10102184F83E102D
:101AF0000021216466626785618D0227C0F20107BB
:101B00002185A7F10211E162E16A026811F5803FC7
:101B100042F48062026018BF01293DD1016841F49E
:101B20008071016020464FF001110022434600956C
:101B300001F082FF50B120680068C00544BF4FF437
:101B400000702064012004B0BDE8F0872069B0F582
:101B5000804F27D149F00100C0B221684246086198
:101B6000204639462B4602F051F80028EAD1208D54
:101B700002284BD001285FD0002840F0738000205D
:101B80000390206841690391816903910399016879
:101B900041F40071016071E00829BFD0216B112967
:101BA000BCD0BFE7062000EAD916206806F1F00194
:101BB0000161B91D204642462B4602F027F8002855
:101BC000C0D120685FFA89F101612046394642465A
:101BD0002B4602F01BF80028B4D1002003902068A7
:101BE0000022416943460391816903910399016889
:101BF00041F48071016020464FF00111009501F021
:101C00001BFF002897D146F0F100A6E72068016885
:101C100041F400610160EFF3108072B60020039080
:101C2000206841690391816903910399016821F456
:101C30008061016062B621E02068016821F4806162
:101C40000160EFF3108072B60020039020684169B4
:101C50000391816903910399016841F40071016066
:101C600062B60BE02068016841F4806101600021E8
:101C7000039141690391806903900398208D0028A6
:101C800000F0CC8040F20C094BF2895A0237C2F2C4
:101C90000009C1F2F84A23260EE000BF106908705F
:101CA000606A218D01306062481E2085618D013996
:101CB0006185010400F0B28080B203280CD80228AC
:101CC0002CD001284AD1204641462A4602F00EF87F
:101CD000002800F09F8035E7204641462A4602F062
:101CE00005F800287FF42EAF2068616A006908704B
:101CF000606A2268411C208D616201382085638DF5
:101D0000013B638553695B07D3D580B20328C5D1F6
:101D1000106820F480601060C0E700BF204639469C
:101D200000224346009501F087FE00287FF40AAFA9
:101D3000EFF3108072B62068616A026842F40072A4
:101D4000026000690870606A218D01306062481E7F
:101D50002085608D0138608562B65BE0204639469B
:101D600000224346009501F067FE00287FF4EAAEAA
:101D70002068016821F480610160EFF3108072B681
:101D80002068616A00690870606A218D013001393C
:101D900060622185618D01396185D9F80010C9081B
:101DA000A1FB0A12110A71430291029901390291B1
:101DB000029900293ED021684A6952071AD4029933
:101DC000013902910299A9B321684A69520711D4D5
:101DD000029901390291029961B321684A69520757
:101DE00008D4029901390291029919B321684A690C
:101DF0005207DAD50A6842F400720A600969017074
:101E0000606A218D01306062481E2085608D013836
:101E1000608562B62068616A006940E7202084F826
:101E20003D00002084F83E0084F83C0004B0BDE88A
:101E3000F08700BF00202021206384F83D1084F843
:101E40003E00216C41F02001216462B684F83C0020
:101E5000012004B0BDE8F0872DE9F04383B01E46B1
:101E6000174689460446FFF737FD94F83D102029B0
:101E700020D10546206800BF8169890716D5FFF784
:101E80002BFD411B20681A29F6D381698907F3D5F8
:101E900000202021206384F83D1084F83E00216C4E
:101EA00041F02001216484F83C0003E094F83C10E8
:101EB000012903D1022003B0BDE8F083012184F899
:101EC0003C100168C90703D1016841F001010160BC
:101ED000016840F2020821F400610160212184F8C8
:101EE0003D10102184F83E10002121646762668550
:101EF000618DC0F201082185A8F10211E162E16A59
:101F00000A9E11F5803F18BF01291DD1016841F4D7
:101F10008071016020464FF0011100223346009588
:101F200001F08AFD50B120680068C00544BF4FF43D
:101F300000702064012003B0BDE8F0832069B0F593
:101F4000804F07D1FE2015E00829DFD0216B122930
:101F5000DCD0DFE7062000EAD9102168F030086104
:101F600008F10601204632462B4601F04FFE0028BC
:101F7000E0D1FF20216800EA0900086120464146BF
:101F800032462B4601F042FE0028D3D100200290B9
:101F900020684169029180690290029806E000BFC2
:101FA000204631462A4601F0E7FC18BB208D68B375
:101FB000204631462A4601F0E1FED8B9606A216820
:101FC000024612F8013B0B616262628D013A628542
:101FD000228D531E23854F697F07E1D51B04DFD077
:101FE000437802300B616062608D01386085901E1D
:101FF0002085D5E7206C04289CD12068016841F435
:1020000000710160012003B0BDE8F0832068016821
:1020100041F400710160202084F83D00002084F824
:102020003E0084F83C0003B0BDE8F08310B586B0F4
:1020300045F200410068C4F2000100228842049287
:1020400002D006B010BD00BF41F21804C4F2020471
:10205000206840F008002060206800F0080001902F
:102060000198C0200290122003900320059001F5F2
:10207000384002A9FFF71CFB606840F40010606064
:10208000606800F400100190019806B010BD0000D7
:1020900040F2040040F27421C2F20000C2F20001DA
:1020A00000780A68104408607047000080B542F26A
:1020B0000000C4F20200016841F010010160032039
:1020C00000F08EF80F2000F005F800F027F800204F
:1020D00080BD000070B540F20406C2F2000640F276
:1020E0000C013278C2F200014FF47A730968B3FB35
:1020F000F2F20446B1FBF2F1084600F063FB0F2C4C
:102100004FF0010508D838B94FF0FF3021460022C2
:10211000002500F039F87460284670BD82B041F2A5
:102120001800C4F202000168022241F001010160BE
:10213000016801F0010101910199416841F080516C
:102140004160406800F08050009000980420C4F284
:102150000100016862F31A61016002B0704700007B
:10216000002848BF7047C1B200F01F00012202FAE8
:1021700000F04EF20012CEF2000242EAD10121F04C
:10218000030108607047000010B54EF60C5CCEF2FB
:10219000000CDCF80030C3F3022E8EF00704042C90
:1021A00028BF0424BEF103034FF0FF3E0EFA04F4EF
:1021B00038BF0023A14399400EFA03F39A43114319
:1021C00000F00F0200F160430901043A03F5644393
:1021D0006244002848BF02F10C03197010BD0000D2
:1021E0004EF60C51CEF200010A684FF6FF031A407A
:1021F00060F30A2242F0806040F0FD700860704792
:102200002DE9F04381B0002800F0858042F20008FB
:10221000C4F202080446D8F800000D4600F007009A
:1022200088420CD2D8F8000020F007002843C8F8F4
:102230000000D8F8000000F00700A8426BD1206829
:1022400041F204098107C4F2020917D5410705D5F7
:10225000D9F8001041F4E061C9F80010010705D574
:10226000D9F8001041F46051C9F80010D9F80010F5
:10227000A26821F0F0011143C9F80010C00741D154
:10228000D8F8000000F00700A8420CD9D8F80000E8
:1022900020F007002843C8F80000D8F8000000F03C
:1022A0000700A84237D12068410707D5D9F80010A8
:1022B000E26821F4E0611143C9F80010000708D575
:1022C000D9F80000216920F4605040EAC100C9F843
:1022D0000000D9F8002002F00C00082841F200208C
:1022E000C0F27A0050D145F6BE13C2F38341C0F666
:1022F0000003595CD2033BD440F60010C0F23D000D
:10230000484341E0606802280AD001282AD159F8E0
:10231000041C890308D4012001B0BDE8F08300BF8C
:1023200059F8041C8901F6D5D9F8001021F00301F1
:102330000843C9F80000FFF7CFFA064641F2883794
:10234000D9F80000616800F00C00B0EB810F97D065
:10235000FFF7C2FA801BB842F2D9032001B0BDE8F2
:10236000F08300BF59F8041C8907D4D5DCE700BF0F
:10237000D9F8002045F6BC13C2F34042C0F6000372
:102380009A5C4843B0FBF2F0D9F8001045F6A4126D
:10239000C1F30311C0F60002515C40F20C0220FAB6
:1023A00001F140F20800C2F200000068C2F200022F
:1023B0001160FFF78FFE002001B0BDE8F083000040
:1023C00040F20C0041F20401C2F20000C4F202012A
:1023D0000068096845F6B412C1F30221C0F6000294
:1023E000515CC8407047000040F20C0041F204010B
:1023F000C2F20000C4F202010068096845F6B41296
:10240000C1F3C221C0F60002515CC8407047000011
:102410002DE9F04182B0002868D00446007841F2EE
:102420000006C007C4F2020625D0706800F00C0058
:1024300004281BD0706800F00C00082802D17068D6
:10244000C00313D46068002800F06881B0F5A02FA5
:1024500000F07C81B0F5803F00F07C81306820F492
:1024600080303060306820F4802076E1306880036E
:1024700001D56068D0B32078800718D5706810F057
:102480000C0F07D0706800F00C0008286ED170683F
:10249000C0036BD43068800702D52069012825D19C
:1024A0003068616920F0F80040EAC10030602078AF
:1024B00000071FD42078400732D4E56995B17068D1
:1024C00000F00C00082840F08F80012D0ED07068BD
:1024D000216A00F480328A4208D1616A00F47010E7
:1024E000884203D1002002B0BDE8F081012002B093
:1024F000BDE8F081A069002862D00020C4F242202B
:102500000121C0F88014FFF7E7F90546706A8007DB
:1025100000F18C80FFF7E0F9401B0228F6D92AE190
:10252000F06910F0805808D1F06940F08050F061F7
:10253000F06900F080500090009847F20007C4F264
:1025400000073868C00529D4386840F480703860C6
:10255000FFF7C2F9054600BF3868C0051ED4FFF773
:10256000BBF9401B6428F7D905E100BF20690028AA
:1025700040F20000C4F2422000F08280012101609C
:10258000FFF7AAF9054600BF306880073FF588AF1E
:10259000FFF7A2F9401B0228F6D9ECE0E06800281A
:1025A00000F08080052800F09780012800F09880D6
:1025B000306A20F001003062306A20F0040092E0BE
:1025C0000020C4F242200021C0F88014FFF784F9F3
:1025D000054600BF706A80077FF56CAFFFF77CF996
:1025E000401B0228F6D9C6E00027C4F2422700208B
:1025F0003866FFF771F9022D05460BD1306880016E
:1026000040F1BE80FFF768F9401B02284FF003003D
:10261000F4D968E7306880017FF564AFFFF75CF9B3
:10262000401B02284FF00300F4D95CE740F20C0095
:10263000C2F20000006844F6D351C1F26201A0FB6F
:102640000101480A019000BF00BF0198411E002807
:1026500001913FF42FAF00BF0198411E0028019166
:102660003FF428AF00BF0198411E002801913FF4BC
:1026700021AF00BF0198411E00280191E4D119E764
:1026800000210160FFF728F9054600BF3068800788
:102690007FF50DAFFFF720F9401B02284FF0030034
:1026A000F4D920E7306A20F001003062306A20F06F
:1026B00004003062FFF710F9054641F2883700BF89
:1026C000306A800720D5FFF707F9401BB8424FF06A
:1026D0000300F5D907E700BF306A40F0040030621C
:1026E000306A40F001003062FFF7F6F8054641F22B
:1026F000883700BF306A800706D4FFF7EDF8401B2B
:10270000B842F7D937E000BFB8F1000F7FF4D5AE7B
:10271000F06920F08050F061CFE600BF306820F40F
:1027200080303060306820F480203060FFF7D4F8CB
:10273000054600BF306880037FF59DAEFFF7CCF8FB
:10274000401B64284FF00300F4D9CCE6306840F415
:1027500080203060306840F480303060FFF7BCF893
:10276000054600BF306880033FF585AEFFF7B4F83B
:10277000401B6428F6D9032002B0BDE8F08100BFF9
:10278000206AB0F5803F05D17168A26821F400315C
:10279000114371607168626A21F474111143084336
:1027A000706001203866FFF797F8044630688001B2
:1027B0003FF598AEFFF790F8001B02284FF003009A
:1027C000F4D990E6411E0020B0EB116F1CBF012030
:1027D00070474EF21002CEF2000251604EF62351C5
:1027E000CEF20001F0230B7007219060116070475A
:1027F000B0B590F83C20012A04BF0220B0BD01F121
:1028000008053CCDD1E900CE23F47C5322F470526C
:102810001A432EF4F0431A432CF4E0431A4324F4F1
:10282000C0431A432A43C96922F480420368114312
:102830005964002180F83C100846B0BD10B590F8EE
:102840003C20012A4FF0020233D080F83D2002687C
:10285000D2F804E0D2F808C00C682EF070032343CD
:1028600040F2FF74C4F20004A24253600ADCB2F1E9
:10287000804F13D040F20043C4F200039A420DD0BF
:1028800011E000BF42F60043C4F201039A4205D0B2
:1028900040F60003C4F200039A4204D149682CF0C8
:1028A0008003194391600121002280F83D1080F8D7
:1028B0003C20104610BD0000002804BF01207047D6
:1028C00010B5044690F83D0028B9002084F83C007B
:1028D000204600F067F8022084F83D00206840F2AE
:1028E000FF730268C4F2000342F6004C9842C4F23F
:1028F000010C15DCB0F1804F1AD040F20041C4F257
:102900000001884214D0984218DCB0F1804F1DD0ED
:1029100040F20041C4F20001884217D01AE000BF23
:10292000604505D040F60001C4F200018842EAD1BA
:10293000A16822F070020A439842E6DD604505D0A6
:1029400040F60001C4F20001884203D1216922F45B
:1029500040720A43A36922F08001D4F804E0E268DF
:10296000194360450160C262C0F828E002D1616984
:10297000CCF8301001214161002084F8461084F821
:102980003E1084F83F1084F8401084F8411084F819
:10299000421084F8431084F8441084F8451084F8F9
:1029A0003D1010BD81B0006842F60041C4F2010143
:1029B000884201D001B0704741F21800C4F2020011
:1029C000016841F400610160006800F4006000905B
:1029D000009801B07047000080B590F83C20012AB3
:1029E0004FF0020200F0C28080F83D20D0F800C015
:1029F0004FF67772DCF8083023EA0202CCF80820A0
:102A00000B684F2B28DC1F2B44DD202B45D0302BAF
:102A100043D0402B40F0AC80D1F804E0C968DCF82A
:102A20002030DCF8202022F00102CCF82020DCF855
:102A3000182022F0F00242EA011123F00A0242EAD1
:102A40000E02CCF81810CCF82020DCF8081041F069
:102A5000470121F0300180E06F2B27DDB3F5005FE7
:102A600048D0B3F5805F7AD0702B40F08180D1E9F7
:102A700001E3C968DCF8082043EA0E0322F47F4230
:102A800043EA01211143CCF80810DCF8081041F0AA
:102A9000770162E00BB1102B6AD1DCF8081021F04D
:102AA0007001194341F0070157E000BF502B35D0AA
:102AB000602B5DD1D1F804E0C968DCF82030DCF887
:102AC000202022F01002CCF82020DCF8182022F47C
:102AD000704242EA013123F0A00242EA0E12CCF821
:102AE0001810CCF82020DCF8081041F0670121F024
:102AF000100132E0D1E901E3C968DCF8082043EABB
:102B00000E0322F47F4243EA01211143CCF808105E
:102B1000DCF8081041F480411FE000BFD1F804E068
:102B2000C968DCF82030DCF8202022F00102CCF863
:102B30002020DCF8182022F0F00242EA011123F0F4
:102B40000A0242EA0E02CCF81810CCF82020DCF879
:102B5000081041F0570121F02001CCF808100022A4
:102B6000012180F83D10002180F83C10104680BD06
:102B70000122F5E780B586B0014640F60000C4F2B8
:102B80000100096800F5105300229942049201D017
:102B900006B080BD41F21801C4F202010A6842F099
:102BA00004020A60096801F00401019101994FF4DF
:102BB0008071029102210391059102A9FEF778FD2F
:102BC00006B080BD2DE9F04390F83C30012B04BFE6
:102BD0000220BDE8F0834FEAB202032A3CD8DFE8C6
:102BE00002F0034381BD00BF036842F600461D6A40
:102BF0001A6AC4F2010622F001021A621A465C68DF
:102C000052F818CFB3428E68D1F800E025F00205E3
:102C100045EA06050CD1CE68D1E9057824F4407464
:102C200025F00C0526F004063C43354344EA08042D
:102C30002CF0730747EA0E075C609F614F680969D3
:102C40005F631D629F6947F008079F619F6927F0D6
:102C500004079F61B2E000BF0121002280F83C2000
:102C60000846BDE8F08300BF036842F600461D6ACF
:102C70001A6AC4F2010622F010021A621A46D3F848
:102C800004C052F8184FB3428E68D1F800E025F026
:102C9000200545EA061510D1CE68D1E9058725F053
:102CA000C0096FF0400505EA06152CF4406647EAB6
:102CB000080745EA090546EA870C24F4E64444EA95
:102CC0000E27C3F804C09F614F6809699F631D62A6
:102CD0009F6947F400679F619F6927F480679F6140
:102CE0006BE000BF036842F600461D6A1A6AC4F230
:102CF000010622F480721A621A46D3F804C052F810
:102D00001CEFB3428E680C6825F4007545EA062571
:102D100011D1CE68D1E9058725F44069360240F229
:102D2000FF4526EA05052CF4405647EA080745EA20
:102D3000090546EA071C2EF073072743C3F804C0B1
:102D4000DF614F680969DF631D62DF6947F00807CB
:102D5000DF61DF6927F00407DF612FE0036842F6D7
:102D60000047D3F820C01A6AC4F2010722F4805247
:102D70001A621A465C6852F81C5FD1F800E08E684F
:102D8000BB4204D14F6924F4804444EA87142CF4F4
:102D9000005747EA063725F4E64646EA0E265C6009
:102DA000DE614E6809691E641F62DF6947F40067CF
:102DB000DF61DF6927F48067DF6109021368194367
:102DC00011600021002280F83C200846BDE8F08315
:102DD000002804BF0120704710B5044690F83D005C
:102DE00028B9002084F83C00204600F067F8022053
:102DF00084F83D00206840F2FF730268C4F20003CB
:102E000042F6004C9842C4F2010C15DCB0F1804F40
:102E10001AD040F20041C4F20001884214D0984216
:102E200018DCB0F1804F1DD040F20041C4F2000127
:102E3000884217D01AE000BF604505D040F6000177
:102E4000C4F200018842EAD1A16822F070020A436C
:102E50009842E6DD604505D040F60001C4F200016D
:102E6000884203D1216922F440720A43A36922F007
:102E70008001D4F804E0E268194360450160C26251
:102E8000C0F828E002D16169CCF83010012141611D
:102E9000002084F8461084F83E1084F83F1084F82F
:102EA000401084F8411084F8421084F8431084F8EC
:102EB000441084F8451084F83D1010BD70470000A0
:102EC00041B1082910D0042914BF00F1410200F1DA
:102ED0003F020BE090F83E20012A1CBF0120704702
:102EE000022280F83E2013E000F140021278012A0D
:102EF0001CBF012070470222082907D0042914BFF3
:102F000080F8412080F83F2002E000BF80F8402098
:102F1000006801F01F010122036A8A4023EA0201CE
:102F20000162036A42F64441C4F201011A43A1F16D
:102F30004403984202620FD040F2FF71C4F20001D4
:102F4000884213DCB0F1804F1CD040F20041C4F243
:102F50000001884216D01CE00A6842F400420A6070
:102F600040F2FF71C4F200018842EBDD42F60041FD
:102F7000C4F20101884205D040F60001C4F200010C
:102F8000884206D1816801F00701062904BF0020AC
:102F90007047016841F001010160002070470000A6
:102FA0007047000070470000B0B582B0044600686A
:102FB0000168C368426901F02F05202D03F0200548
:102FC00006D12DB1204602B0BDE8B04001F03CB8BA
:102FD0005FEA017C1EBF02F0010E03F4907212EB57
:102FE0000E0253D1226B012A05D111F0100218BF35
:102FF00013F0100236D10A0622D513F080021FD03A
:1030000094F8411021293FD1A168B1F5805F03D127
:103010002169002900F07082216A4A1C2262097825
:103020004160E18C01390A04E1842DD1C16821F0AD
:103030008001C160C16841F04001C16002B0B0BD13
:10304000490621D513F040011ED0C16821F040018E
:10305000C1602021204684F8411002B0BDE8B04094
:1030600000F086BC00210191016801914168019145
:1030700001994069400613D4A08DE18DE28D002AAC
:1030800018BF884240F0BA8102B0B0BDCA0718BF6D
:1030900013F4807240F0B6804A0700F1B980BEE0B8
:1030A000E06B016849688AB2002AEDD0A38D9A428C
:1030B000EAD2E1858069202800F09C80206850E8F1
:1030C000030F216820F4807041E80302DAB1206820
:1030D00050E8030F216820F4807041E8030292B1A8
:1030E000206850E8030F216820F4807041E8030253
:1030F0004AB1206850E8030F216820F4807041E84D
:103100000302002ADAD1206850E8050F216820F078
:10311000010041E80502DAB1206850E8050F216896
:1031200020F0010041E8050292B1206850E8050F47
:10313000216820F0010041E805024AB1206850E80A
:10314000050F216820F0010041E80502002ADAD1CC
:10315000206850E8050F216820F0400041E8050292
:10316000DAB1206850E8050F216820F0400041E8FE
:10317000050292B1206850E8050F216820F0400058
:1031800041E805024AB1206850E8050F216820F0A7
:10319000400041E80502002ADAD1202084F84200EC
:1031A00000202063206850E8030F216820F0100001
:1031B00041E80302DAB1206850E8030F216820F0EB
:1031C000100041E8030292B1206850E8030F216823
:1031D00020F0100041E803024AB1206850E8030FD4
:1031E000216820F0100041E80302002ADAD1E06BE8
:1031F000FEF7CCF902206063A08DE18D401A81B208
:10320000204674E1626C42F0010262644A0706D50E
:10321000BEF1000F03D0626C42F0020262648A07C2
:1032200006D5BEF1000F03D0626C42F00402626466
:10323000BCF1000F09D545EA0E02B2FA82F252093A
:1032400003D1626C42F008026264626C002A3FF4AF
:103250001BAF11F0200118BF002D03D0204600F055
:10326000F3FE20684069616C00F0400001F0080145
:10327000401800F0B58000BF206850E8030F2168B7
:1032800020F4907041E80302BAB3206850E8030FBD
:10329000216820F4907041E8030272B3206850E87E
:1032A000030F216820F4907041E803022AB32068DC
:1032B00050E8030F216820F4907041E80302002ACF
:1032C000DAD11AE0206850E8050F216820F00100EB
:1032D00041E80502DAB1206850E8050F216820F0C6
:1032E000010041E8050292B1206850E8050F21680D
:1032F00020F0010041E805024AB1206850E8050FBE
:10330000216820F0010041E80502002ADAD1206B93
:10331000012824D1206850E8030F216820F0100014
:1033200041E80302DAB1206850E8030F216820F079
:10333000100041E8030292B1206850E8030F2168B1
:1033400020F0100041E803024AB1206850E8030F62
:10335000216820F0100041E80302002ADAD1202081
:1033600084F84200002020632068406940063FD571
:10337000206850E8050F216820F0400041E8050270
:10338000DAB1206850E8050F216820F0400041E8DC
:10339000050292B1206850E8050F216820F0400036
:1033A00041E805024AB1206850E8050F216820F085
:1033B000400041E80502002ADAD1E06BC0B144F2D6
:1033C0003D01C0F600014163FEF704F900283FF417
:1033D0005BAEE06B416B02B0BDE8B040084700BF98
:1033E0002046FFF7DFFD0020606402B0B0BD00BFE3
:1033F000204602B0BDE8B040FFF7D4BD401A2168B6
:1034000051E8031F226821F4907142E80313DBB1F5
:10341000216851E8031F226821F4907142E80313E8
:1034200093B1216851E8031F226821F4907142E8AA
:1034300003134BB1216851E8031F226821F49071F6
:1034400042E80313002BDAD1216851E8051F2268F6
:1034500021F0010142E80513DBB1216851E8051FA5
:10346000226821F0010142E8051393B1216851E877
:10347000051F226821F0010142E805134BB12168C4
:1034800051E8051F226821F0010142E80513002BD5
:10349000DAD1202184F8421000212163216851E80B
:1034A000031F226821F0100142E80313DBB12168F9
:1034B00051E8031F226821F0100142E8031393B181
:1034C000216851E8031F226821F0100142E803132C
:1034D0004BB1216851E8031F226821F0100142E836
:1034E0000313002BDAD1022281B22046626302B0BC
:1034F000BDE8B040FFF754BD216A31F8022B6FF3ED
:103500005F22426021628CE5002804BF01207047E1
:1035100010B5044690F8410028B9002084F8400016
:10352000204600F063F8242084F841002068D4E9A4
:103530000212C36823F40053C360036923F44053A9
:103540001A430261D4E904231143C268194341F2CA
:103550000C639A431143C1604169A26921F440712F
:10356000114343F60002C4F201029042416103D0CC
:10357000FEF726FF02E000BFFEF736FF6268192162
:1035800048439100B0FBF1F048F21F51C5F2EB1136
:10359000A0FB01235A094FF69C73C0F6FF7302FB90
:1035A0000300322303EB0010A0FB0101F02303EA28
:1035B0005113206803EB0212C1F3431111448160DF
:1035C000016921F490410161416921F02A014161C1
:1035D000C16841F40051C16000202021606484F87A
:1035E000411084F84210606310BD000070B586B0D1
:1035F00040F60004C4F20104006804F540510026BE
:103600008842049602D006B070BD00BF41F2180097
:10361000C4F20200016802AD41F48041016001681A
:1036200001F4804101910199016841F004010160B8
:103630000068294600F00400019001984FF40070E2
:10364000029002200390032005902046FEF730F8F8
:103650004FF48060CDE90206204629460496FEF725
:1036600027F8252000210022FEF78EFD2520FEF7F9
:1036700077FD06B070BD000090F84230202B1CBFD3
:103680000220704700294FF0010318BF002A01D122
:103690001846704700230363816222218285C28518
:1036A000436480F842100169006819B1C16841F4AF
:1036B0008071C1604169002341F001014161C1682D
:1036C00041F02001C160184670470000B0B540F2DB
:1036D000C804C2F200040068216A884218BFB0BD65
:1036E000254615F8200B01F01DFA28462146012237
:1036F000BDE8B040FFF7C0BF2DE9F04381B00446FC
:1037000090F84100202840F0B180884600294FF011
:10371000010000F0D6801646002A00F0D28000207A
:10372000606421201D4684F84100FEF7D5F8A68488
:10373000E684A1680646B1F5805F03D120690028C0
:1037400000F0988047464FF00008E18C206800297F
:1037500000F0968005F101090BE000BF47B317F8B0
:10376000011B4160E18C0139E184E18C002900F00A
:10377000878001680906F1D4B9F1000F0AD0EDB1D4
:10378000FEF7AAF8801BA84218D82068016809062D
:10379000F6D5E3E701680906E0D4016809065CBFD5
:1037A00001685FEA0161D9D401680906F2D5D5E75D
:1037B00038F8021B00276FF35F21D2E7206850E83A
:1037C000030F216820F4D07041E80302BAB32068E7
:1037D00050E8030F216820F4D07041E8030272B36F
:1037E000206850E8030F216820F4D07041E80302FC
:1037F0002AB3206850E8030F216820F4D07041E814
:103800000302002ADAD11AE0206850E8050F216887
:1038100020F0010041E80502DAB1206850E8050F08
:10382000216820F0010041E8050292B1206850E8CB
:10383000050F216820F0010041E805024AB1206827
:1038400050E8050F216820F0010041E80502002A38
:10385000DAD1202084F8410084F84200002084F866
:103860004000032001B0BDE8F08300BF022001B09A
:10387000BDE8F0830027E18C206800297FF46AAF5F
:103880000168490619D4FDB1691C0DD101684906CA
:1038900013D4016849065CBF01685FEA41610CD43A
:1038A00001684906F2D508E0FEF716F8801BA84229
:1038B0000AD8206800684006F6D5202084F8410028
:1038C000002001B0BDE8F083206850E8030F2168B4
:1038D00020F4D07041E80302002A3ED0206850E86E
:1038E000030F216820F4D07041E80302AAB32068D6
:1038F00050E8030F216820F4D07041E8030262B35E
:10390000206850E8030F216820F4D07041E80302DA
:10391000002AD9D121E000BF206850E8050F2168B6
:1039200020F0010041E80502002A3FF492AF206830
:1039300050E8050F216820F0010041E80502002A47
:103940003FF487AF206850E8050F216820F00100A0
:1039500041E80502002A3FF47CAF206850E8050FDB
:10396000216820F0010041E80502002AD4D170E767
:1039700070470000FEE7000070B50368044653F886
:10398000140F400711D40E46481C29D086BB00BF37
:103990001868400527D4FDF79FFF236853F8140FDC
:1039A000400739D518684007F2D5002070BD00BF28
:1039B00018684007F9D41868400514D418684007FF
:1039C000F3D4186840050ED418684007EDD4186881
:1039D000400508D4186840074FF0000048BF70BD8C
:1039E00018684005E4D56FF480601860042014E086
:1039F000154603E053F8140F4007D6D41868400565
:103A0000F1D4FDF769FF401B2368B042F2D9586931
:103A10004007EFD4202000E0202000212022216355
:103A200084F83D2084F83E10226C1043206401206D
:103A300084F83C1070BD00002DE9F0410546006897
:103A40001E46144601F47F0201338FB242D0DDF8E6
:103A50001880B2F5803F40F0878040693840C01B35
:103A6000B0FA80F04009A04240F0C8804EB924E08E
:103A700040693840C01BB0FA80F04009A04240F0D5
:103A8000BD80FDF729FFA0EB08012868B142EFD9FE
:103A900041693940C91BB1FA81F14909A142E7D115
:103AA0009BE000BF40693840C01BB0FA80F040097D
:103AB000A0424FF0000040F0A680FDF70DFF2868FF
:103AC00041693940C91BB1FA81F14909A142E9D1E3
:103AD00083E000BFB2F5803F24D100BF4169394087
:103AE000C91BB1FA81F14909A14240F087804169BF
:103AF0003940C91BB1FA81F14909A14240F07E80E9
:103B000041693940C91BB1FA81F14909A14275D116
:103B100041693940C91BB1FA81F14909A142DDD09F
:103B20006CE000BF81693940C91BB1FA81F14909D4
:103B3000A14263D181693940C91BB1FA81F14909B8
:103B4000A1425BD181693940C91BB1FA81F14909B0
:103B5000A14253D181693940C91BB1FA81F14909A8
:103B6000A142DFD04AE000BF80693840C01BB0FAF4
:103B700080F04009A04241D146B923E08069384035
:103B8000C01BB0FA80F04009A0423BD1FDF7A4FE73
:103B9000A0EB08012868B142F0D981693940C91BFE
:103BA000B1FA81F14909A142E8D116E080693840B3
:103BB000C01BB0FA80F04009A0424FF0000018BFCF
:103BC000BDE8F081FDF788FE286881693940C91B8E
:103BD000B1FA81F14909A142E8D1002020212863EE
:103BE00085F83D1085F83E00296C41F020012964DC
:103BF00085F83C000120BDE8F08100BF0020BDE851
:103C0000F08100BF0020BDE8F0810000F0B581B078
:103C1000044600681D4643698FB203EA0701B942B2
:103C200002D1002001B0F0BD41691646013201F415
:103C3000806125D0002940D1CEB100BFFDF74CFEF8
:103C4000411B2068B14203D941693940B9424BD187
:103C500041693940B942E4D041694905EED52CE0CB
:103C600041693940B942DCD04169490525D4FDF7A5
:103C700033FE206841693940B942F1D0202024E068
:103C8000D9B941693940B942CBD04169490514D409
:103C900041693940B942C4D0416949050DD44169EF
:103CA0003940B942BDD04169490506D4416939401E
:103CB000B942B6D041694905E3D5016841F40071C4
:103CC00001606FF4806141610420002120222163A2
:103CD00084F83D2084F83E10226C1043206484F860
:103CE0003C10012001B0F0BD2020EEE770B5044685
:103CF0000068154650F8143F5A063DD40E4629B9BF
:103D000026E000BF50F8141F490635D40168C906E3
:103D100021D4FDF7E1FD411B2068B142F2D9416990
:103D20004906EFD400202021206384F83D1084F858
:103D30003E00206C40F0200018E000BFFDF7CCFDF5
:103D4000206850F8141F4906ECD50168490613D4C1
:103D50000168C906F2D56FF0100101600020202132
:103D6000206384F83D1084F83E00206C206400201D
:103D700084F83C00012070BD002070BD70B5036860
:103D8000044653F8140F000611D40E46481C29D0DF
:103D900086BB00BF1868400527D4FDF79DFD23684A
:103DA00053F8140F000639D518680006F2D5002024
:103DB00070BD00BF18680006F9D41868400514D417
:103DC00018680006F3D4186840050ED41868000679
:103DD000EDD41868400508D4186800064FF00000BC
:103DE00048BF70BD18684005E4D56FF48060186066
:103DF000042014E0154603E053F8140F0006D6D44F
:103E000018684005F1D4FDF767FD401B2368B042F8
:103E1000F2D958690006EFD4202000E020200021CC
:103E20002022216384F83D2084F83E10226C104348
:103E30002064012084F83C1070BD0000FEE7000003
:103E4000FEE700007047000070470000FEF720B951
:103E50007047000040F2C811C2F2000108607047CC
:103E600040F2CC11C2F2000108607047B0B5DDE944
:103E700006ECDDE90454017042708370C570047172
:103E800080F805E080F806C0B0BD000070B584B0D1
:103E900040F2CC15C2F200050446002128688DF8D6
:103EA0000F1064260DF10F02D02101230096FDF7BB
:103EB000D3FF286802AAD02107230096FDF7CEFD84
:103EC0009DF808009DF80910060906EB860600F02B
:103ED0000F0000EB4600207008099DF80A2000EB57
:103EE000800001F00F0101EB4000607010099DF8A7
:103EF0000B3000EB800002F00F0101EB4000A070DE
:103F0000180900EB800003F00F0101EB40009DF861
:103F10000C10E070080900EB800001F00F0101EBCC
:103F200040009DF80D102071080900EB800001F0A1
:103F30000F0101EB40009DF80E106071080900EBC5
:103F4000800001F00F0101EB4000A0712046FFF757
:103F500081FF04B070BD0000B0B584B002784FF0AE
:103F6000CD0CD4B204FB0CF4E40A04EB84054378D2
:103F7000A2EB450242EA04128DF80920DAB202FBF4
:103F80000CF2D20A002102EB82048DF8081081782D
:103F9000A3EB440343EA02128DF80A20CAB202FBE3
:103FA0000CF2D20A02EB820390F803E0A1EB43018A
:103FB00041EA02118DF80B105FFA8EF101FB0CF152
:103FC000C90A01EB8102AEEB420242EA0111027919
:103FD0008DF80C10D1B201FB0CF1C90A01EB810381
:103FE000A2EB430242EA011142798DF80D10D1B2E1
:103FF00001FB0CF1C90A01EB8103A2EB43028079BA
:1040000042EA01118DF80E10C1B201FB0CF1C90A90
:1040100001EB8102A0EB420040EA011140F2CC101A
:10402000C2F2000000688DF80F10642502AAD021AA
:1040300008230095FDF710FF04B0B0BD406A0021D1
:10404000C185C184FEF7AEBF81B090F8421022292D
:1040500021D183680246B3F5805F09D152F8281F49
:1040600052F8183C002B63D003685B680AE000BF7D
:1040700052F8281F13B90369002BF5D003685B6859
:1040800003F07F030B70116801311160C18D01399C
:104090000A04C18502D001B0704700BF0168CA6838
:1040A00022F02002CA60CA6822F48072CA604A699B
:1040B00022F001024A61202180F842100021416370
:1040C000026B012A3CD10163016851E8031F0268B9
:1040D00021F0100142E80313DBB1016851E8031F2E
:1040E000026821F0100142E8031393B1016851E81E
:1040F000031F026821F0100142E803134BB101686D
:1041000051E8031F026821F0100142E80313002B5D
:10411000DAD101680A68D20606D5002200920A6840
:104120000092496800910099818D01B0FEF738BF77
:10413000026852686FF35F2221F8022B8162A5E7C3
:1041400001B0FFF7C3BA000040F2E800C2F200007D
:10415000FEF72ABFFEE7000070B545F6CE11C0F6A7
:104160000001FCF7A7F840F23015C2F2000578B163
:1041700045F6CE14C0F6000429784A1C05EB8101EF
:104180008860002021462A70FCF794F80028F3D1BB
:1041900040F21001C2F200010868AC68696050B1D9
:1041A00001F10C062146FCF7ABF858B16E6056F8E9
:1041B0000C0B0028F6D108A000F04AFB0020287064
:1041C00070BD00BF284656F8042C10F8081B904715
:1041D0000020287070BD00BF4572726F72202121CF
:1041E00021000000B0B50C4601F049FA0023C4F2EA
:1041F0005903002201F0BAF822680446D06A0D463D
:1042000001F03DFA02460B462046294601F04AFAE3
:1042100001F006FAB0BD000010B582B0DDF810C0A4
:104220000446CDF800C000F007FB40F26C20C2F25B
:104230000000046002B010BD01290FD180B50AA0B2
:1042400000F006FB40F26C20C2F200000068002182
:104250000022BDE8804000F077BA00BF45F652204A
:10426000C0F6000000F0F4BA46414E204F4646002A
:10427000022913D110B504460BA000F0E9FA6068DA
:10428000FCF70AF840F26C21C2F200010968C2B2E0
:1042900008460121BDE8104000F056BA45F652200C
:1042A000C0F6000000F0D4BA46414E204F4E000048
:1042B0002DE9F04140F60004C4F2010404F58067E2
:1042C000164688460546384601210022FDF7FEFACB
:1042D000384602210022FDF7F9FA3846082100226B
:1042E000FDF7F4FA384610210022FDF7EFFA701EB0
:1042F000C0B2032806D823A131F810103846012295
:10430000FDF7E4FA21A010F808000121287000F060
:1043100001022046FDF7DAFA28780221C0F34002B4
:104320002046FDF7D3FA28780421C0F38002204606
:10433000FDF7CCFA28780821C0F3C0022046FDF72B
:10434000C5FA28781021C0F300122046FDF7BEFA06
:1043500028782021C0F340122046FDF7B7FA2878CC
:104360004021C0F380122046FDF7B0FA2878802162
:10437000C2092046FDF7AAFA0320BDE8F041FDF787
:1043800083B900BF0100020008001000C0F9A4B00A
:10439000999282F8809000002DE9F04381B0984610
:1043A0009146DDE90832CD270E4603FB07F1C90A25
:1043B00001EB8104A3EB440402FB07F3DF0A07EBE4
:1043C0008703A2EB43050122FFF772FFE1B23046FB
:1043D0000222FFF76DFF484639460322FFF768FFC8
:1043E000E9B24046042201B0BDE8F043FFF760BFE8
:1043F00001290FD180B50AA000F02AFA40F600404A
:10440000C4F201004FF480510022BDE88040FDF766
:104410005DBA00BF45F65220C0F6000000F018BAA1
:104420004C4544204F46460001290FD180B50AA0D3
:1044300000F00EFA40F60040C4F201004FF4805143
:104440000122BDE88040FDF741BA00BF45F6522089
:10445000C0F6000000F0FCB94C4544204F4E00006F
:104460009AB0FDF723FE00240120CDE90844CDE9F0
:104470000644039007904FF4E0104FF4803102257A
:104480000C9003A8CDE90414CDE90A51FDF7C0FF53
:1044900020B1EFF3108072B6FEE700BF0F20CDE928
:1044A0000D054FF48060CDE910040DA802210F9492
:1044B000FDF7A6FE20B1EFF3108072B6FEE700BF55
:1044C00041F21800C4F20200016840F6004941F0D0
:1044D000200101600168C4F2010901F0200103918B
:1044E00003990168A9F5806441F004010160016845
:1044F000002201F00401039103990168FF2641F0B5
:10450000080101600068FF2100F008000390039893
:1045100020460027FDF7DAF9484649F21B01002240
:1045200049F21B08FDF7D2F9039603AE4FF0010ADA
:10453000022520463146CDE904A70695FDF7B8F8D7
:1045400048463146CDE9038ACDE90575FDF7B0F857
:1045500040F2C808C2F2000809F53051404640F860
:10456000201F4FF416510C22C0E90117C0E9037750
:10457000C0E90527C761FEF7C7FF28B1EFF3108038
:1045800072B600BFFEE700BF40F2D010A9F5384177
:10459000C2F2000048F2A0624FF48043C0F2010270
:1045A00080E88600C0E90373C0E90577C0E90777B2
:1045B000FDF798F920B1EFF3108072B6FEE700BF67
:1045C00040F22420002109F50052C2F200004723E6
:1045D00040F2E7371991CDE91711CDE9141109918E
:1045E000C0E90023C0E90217C0E904118161FEF7A8
:1045F00063F928B1EFF3108072B600BFFEE700BF89
:104600004FF48050169040F22420C2F2000016A908
:10461000FEF7E2F920B1EFF3108072B6FEE700BFBB
:1046200040F22420C2F20000FEF7D2FB20B1EFF3EB
:10463000108072B6FEE700BF40F22420C2F20000F4
:1046400014A9FEF7FBF828B1EFF3108072B600BF93
:10465000FEE700BF60200D9040F224200024C2F24B
:1046600000000DA90022CDE90E44CDE91044CDE9AA
:104670001244FEF7A7FA28B1EFF3108072B600BF1C
:10468000FEE700BF4FF40050089040F22420C2F231
:10469000000003A90794CDE90544CDE903440A9439
:1046A000FEF7A6F820B1EFF3108072B6FEE700BF68
:1046B00040F22424C2F200042046FEF75BFA2046B2
:1046C0000021FEF7FDFB08F12006304600F0BAF8A5
:1046D000304641460122FEF7CFFF40F2D010C2F231
:1046E0000000FFF7BDFB08F10C00002122464FF44B
:1046F0000043CDF80090FFF78FFD08F1050908F1A0
:10470000010A08F1020B08F1030408F104050DE0A9
:1047100000F0F8F998F8060098F8057000905046F7
:10472000594622462B460197FFF736FEFDF7D4F88F
:10473000801BB0F57A7FEBD94846FFF7A7FBFDF762
:10474000CBF80646E4E7000070B5836804460E46E1
:1047500010461946FFF746FD022E054618D0012ED9
:104760002AD0002E49D12069A1890022FDF7AEF898
:1047700060684FEAB00003283FD8DFE800F0033F4D
:10478000454B00BFA06800210068416370BD00BFB9
:104790002069A1890022FDF799F860684FEAB0000E
:1047A000032888BF70BDDFE800F003211D2500BF8E
:1047B000A0680068456370BD2069A1890122FDF7EA
:1047C00085F8A068626800684FEAB202C16A032AED
:1047D00013D8491BDFE802F00224282C89B2416378
:1047E00070BD00BFA0680068C56370BDA0680068A8
:1047F000856370BDA0680068056470BDA068002175
:104800000068816370BD00BFA06800210068C163BB
:1048100070BD00BFA06800210068016470BD00BFCA
:1048200089B2816370BD00BF89B2C16370BD00BF32
:1048300089B2016470BD00000430DDF800C080E87A
:104840000E10704740F27021C2F2000108607047FC
:1048500083B0B0B59BB084461FA802AC0EC01FAA9F
:10486000204661460192FBF705FD40F27020C2F23E
:10487000000005682046FBF723FD82B2284621464A
:104880006423FEF739FF1BB0BDE8B04003B07047AA
:10489000012903D809A0FFF7DBBF00BF022908BF29
:1048A00000F014B801A0FFF7D3BF00BF45786365DF
:1048B0007373696E67206461746100004D6973737E
:1048C000696E6720646174610000000010B582B0F9
:1048D000446836A02146FBF713FDD8B134A0214629
:1048E000FBF70EFD10B333A02146FBF709FD58B3CB
:1048F00031A02146FBF704FDA0B330A02146FBF711
:10490000FFFC00283ED02EA002B0BDE81040FFF70B
:104910009FBF00BF40F2C810C2F20000006841789B
:1049200046A002B0BDE81040FFF792BF40F2C810A9
:10493000C2F200000068427881783CA002B0BDE875
:104940001040FFF785BF00BF40F2C810C2F2000060
:1049500000684378827801792EA002B0BDE810404B
:10496000FFF776BF40F2C810C2F20000006844783A
:104970008378027941791FA00094FFF769FF02B0A4
:1049800010BD00BF40F2C810C2F20000006890F8ED
:1049900001C0847881790379427900940BA0CDF825
:1049A00004C0FFF755FF02B010BD00BF300000008B
:1049B000310000003200000033000000340000002D
:1049C000646F6E7420657869737400006E616D3A6F
:1049D00025642F7468616E673A25642F6E6761796C
:1049E0003A25642F67696F3A25642F706875743AA9
:1049F000256400007468616E673A25642F6E6761F4
:104A0000793A25642F67696F3A25642F7068757449
:104A10003A2564006E6761793A25642F67696F3AB9
:104A200025642F706875743A2564000067696F3AD1
:104A300025642F706875743A256400007068757479
:104A40003A256400082908BF00F014B801A0FFF758
:104A5000FFBE00BF4D697373696E67206461746146
:104A6000206F7220457863657373696E6720646197
:104A7000746100002DE9F04786B006464068FBF7F8
:104A80000BFCB16880460846FBF706FCF1688146DE
:104A90000846FBF701FC316982460846FBF7FCFB40
:104AA000716904460846FBF7F7FBB16905460846FD
:104AB000FBF7F2FBF16906460846FBF7EDFBC7B2D0
:104AC000F0B2E9B2E2B204ACCDE9002102905FFAA3
:104AD00088F15FFA89F25FFA8AF320460397FFF7BD
:104AE000C5F92046FFF738FA02A0FFF7B1FE06B07D
:104AF000BDE8F0874368616E676520737563636521
:104B00007373000010B540F26014C2F200046078C4
:104B1000012818BF10BD2178A01CFFF71DFB002045
:104B2000208010BD40F26011C2F200010A780A280C
:104B300006D188180022827001204870704700BF9B
:104B40008B189870501C087070475FEA400C08BFC3
:104B500091F0000F4FEA8C234FEAC12243EA5151F2
:104B60004FEA1C5018BF00F5F0404FEA300018BF64
:104B700041F000415FEA6C5C00F02980BCF1FF3F2E
:104B800008BF40F080407047130C06BF12044FF07E
:104B9000100C4FF0000C130E04BF12020CF1080CA5
:104BA000130F04BF12010CF1040C930F04BF920009
:104BB0000CF1020CD30F04BF52000CF1010C114692
:104BC0004FF00002A0F11F00A0EB0C00704711F0A5
:104BD000004F08BF704731F000413FF4D5AF0B0CD8
:104BE00006BF09044FF0100C4FF0000C0B0E04BF71
:104BF00009020CF1080C0B0F04BF09010CF1040CA5
:104C00008B0F04BF89000CF1020CCB0F04BF4900CD
:104C10000CF1010CCCF1200322FA03F341EA030169
:104C200002FA0CF2A0EB0C0000F10100704700004A
:104C300023F07F4720F07F4C80EA030000F0004023
:104C4000ACEB070303F57C5303F1FF032DE9804927
:104C500009B44FEA144324EA03484FEA154B25EA06
:104C60000B4E0FF2042606EB13273E7803FB066774
:104C7000C7F5000707FB06F64FEAD64606F102061F
:104C80004FEA543707FB066CCCF1005C4FEA1C4737
:104C90002CEA074C0CFB06F507FB06F404EB154663
:104CA0004FEA961649085FEA320234BF00204FF0FF
:104CB00000404FEAD13706FB07FC4FEA1C4C0CFBC7
:104CC0000BF7D21B03FB0CF761EB07010CFB0EF794
:104CD000B0EB074072EB17420CFB08F734BFA2EBB6
:104CE0000742B2EB074261EB17414FEA0C444FEA2F
:104CF000910706FB07FC4FEA1C4C0CFB0BF7B0EBD3
:104D0000C74072EB573203FB0CF734BFA2EBC7422C
:104D1000B2EBC74261EB57310CFB0EF7B0EBC700AB
:104D200072EB57720CFB08F734BFA2EBC702B2EB71
:104D3000C70261EB57714FEA816141EA92114FEA74
:104D4000826242EA90124FEA806004EBCC04039F37
:104D50004FEAD13706FB07FC4FEA1C4C0CFB0BF764
:104D6000D21B03FB0CF761EB07010CFB0EF7B0EB5A
:104D7000074072EB17420CFB08F734BFA2EB074267
:104D8000B2EB074261EB17414FEA8C5504EB9C24D0
:104D90004FEA910706FB07FC4FEA1C4C0CFB0BF794
:104DA000B0EBC74072EB573203FB0CF734BFA2EBFA
:104DB000C742B2EBC74261EB57310CFB0EF7B0EBC9
:104DC000C70072EB57720CFB08F734BFA2EBC702A7
:104DD000B2EBC70261EB57714FEA816141EA921170
:104DE0004FEA826242EA90124FEA806015EB4C254E
:104DF00044F100044FEAD13706FB07FC4FEA1C4C94
:104E00000CFB0BF7D21B03FB0CF761EB07010CFB50
:104E10000EF7B0EB074072EB17420CFB08F734BFFC
:104E2000A2EB0742B2EB074261EB17414FEA813137
:104E300041EA92414FEA823242EA90424FEA8030A0
:104E40004FEA0C7615EB1C1544F1000448EA0343C5
:104E50004EEA0B484FF0000EB2EB080C71EB030763
:104E600024BF624639464EEB0E0E4FF0000B001881
:104E7000524149414BEB0B0BB2EB080C71EB0307B2
:104E80007BF1000B24BF624639464EEB0E0E4FF00D
:104E9000000B0018524149414BEB0B0BB2EB080CD5
:104EA00071EB03077BF1000B24BF624639464EEBE2
:104EB0000E0E51EA020718BF46F0010616EB0E76F9
:104EC00055F1000254F1000103D5BDE88901BDE8A8
:104ED0000088BDE88901BDE80048B619524141EBA0
:104EE0000101A3F10103704780807F7E7D7C7B7A86
:104EF0007978777676757473727171706F6E6E6D86
:104F00006C6C6B6A6A69686867666665646463632B
:104F100062616160605F5F5E5E5D5D5C5C5B5B5AB1
:104F20005A5959585857575656555555545453531E
:104F300052525251515050504F4F4F4E4E4D4D4D79
:104F40004C4C4C4B4B4B4A4A4A49494948484847C4
:104F50004747474646464545454444444443434302
:104F600043424242424141419C46002B30D47700AB
:104F70002BD04FEA37071CB503B44FF010004FF0A9
:104F80001001BAF1000F06D0BCF1000FDCBF40F0F9
:104F9000080040F008014FF000000FBCBDE81040D1
:104FA0000BF1010BBBF1010F08BF5FEA170722BF2E
:104FB00012F1010211F101014FF0004143F1000330
:104FC00000F0004043EA00007047F9D35708D0E7EB
:104FD00046EA06464FEA164613F1400F1FDD13F16D
:104FE000200FDFBF16430A46002120335B42BED0AC
:104FF000C3F1200746EA06464FEA164602FA07F7CB
:1050000046EA070622FA03F2C3F1200701FA07F77E
:1050100042EA070221FA03F14FF00003A7E746EA4C
:10502000020646EA06464FEA164646EA0106BCBFB5
:1050300046EA0646360C4FF000034FF000024FF0F0
:10504000000194E72DE9804C70B49A46934691E8AC
:10505000380007C831EA400C48BF34EA430C03D596
:10506000FFF7E6FDFFF780FFF0BCBDE8008C2DE9FF
:10507000804C70B49A46934691E8380007C810F007
:10508000804F08BF13F0804F03D100F005F8FFF701
:105090006BFFF0BCBDE8008C20F07F4723F07F4C15
:1050A00080EA030000F0004007EB0C03A3F57C53FB
:1050B000A3F1FE0392F0000F00F0B38095F0000F13
:1050C00000F077802DE901494FEA114021EA0048BC
:1050D0004FEA144624EA064700FB06FC08FB06F6E6
:1050E00007FB08F818EB06484CEB164C00FB07F7DB
:1050F00018EB07484CEB17404FEA124B22EA0B4ED5
:105100004FEA154625EA06470BFB06FC0EFB06F6A2
:1051100007FB0EFE1EEB064E4CEB164C0BFB07F787
:105120001EEB074E4CEB174B18EB0B0840F1000041
:1051300018EB0E0B58EB000840F100008F1A4FF0EF
:1051400000014FF000063CBFC943661B14BFB5EB1E
:10515000040C00213CBFC943F61B4FEA174427EA61
:1051600004454FEA1C472CEA074C04FB076205FB89
:1051700007F70CFB05F616EB074642EB174204FB5C
:105180000CFC16EB0C4642EB1C421BEB060658EBE4
:10519000020241414EEA8E0E46EA9E0601D5BDE866
:1051A0000189B619524141EB0101A3F10103BDE8A8
:1051B00001894FEA144524EA05464FEA114721EADE
:1051C000074C05FB07F406FB07F70CFB06F111EB98
:1051D000074144EB174405FB0CFC11EB0C4144EB7D
:1051E0001C444FEA124722EA074C05FB07F206FB74
:1051F00007F70CFB06F616EB074642EB174205FBDA
:105200000CFC16EB0C4642EB1C456A1854F10001ED
:1052100048BF7047B619524141EB0101A3F10103A8
:10522000704795F0000F37D04FEA114221EA02464D
:105230004FEA144724EA074C02FB07F106FB07F785
:105240000CFB06F414EB074441EB174102FB0CFC8A
:1052500014EB0C4441EB1C414FEA154725EA074C7F
:1052600002FB07F506FB07F70CFB06F616EB0746F5
:1052700045EB174502FB0CFC16EB0C4645EB1C42BC
:10528000121951F1000148BF7047B619524141EB64
:105290000101A3F1010370474FEA144524EA0546D2
:1052A0004FEA114721EA074C05FB07F106FB07F718
:1052B0000CFB06F212EB074241EB174105FB0CFC1D
:1052C00012EB0C4251EB1C414FF0000648BF7047F7
:1052D000921841EB0101A3F101037047490050EA24
:1052E000C12018BF04204A0D18BF40F0010040F251
:1052F000FF72B2EB515F08BF40F00200012808BF07
:105300000520704730380A2801D20120704700205C
:105310007047000010B500290AD00878002807D08F
:1053200005487844FAF7ECFF002801D0002010BDB2
:105330000248784410BD0000620700005A070000D0
:1053400010B500290AD00878002807D0054878440D
:10535000FAF7D6FF002801D0002010BD024878449B
:1053600010BD0000460800003E0800002DE9C041C5
:1053700030B4DFF8A4C23CEA111418BF3CEA13149D
:1053800000F0ED801CEA111481EA030544EAD574AB
:1053900018BF1CEA131500F0C880A4EB050404F143
:1053A0007F7404F500344FF0004545EAC12145EA19
:1053B000C32341EA505143EA52534FEAC0204FEA17
:1053C000C222994208BF904200F09D804FEA1365C7
:1053D0000FF24416765D4FEA134506FB05F7C7F159
:1053E000807706FB07F74FEAD737A7FB03687642BB
:1053F000A7FB06CEC8F5803838BFA8F1010807FB27
:1054000008E6A6FB028C4FF0000EE6FB03CEDCF1B3
:10541000000CCEF1004E38BFAEF1010EA6FB0C58C9
:105420004FF00007E6FB0E87A1FB08C6A0FB07CEE6
:1054300016EB0E064FF0000545F10005E1FB076590
:1054400015F1E04E7EBFA4F580345FEA46066D415B
:1054500016F1800745F100054FEA172747EA05676F
:105460004FEA15254FEA0666A6F1DE46B6F1805FE3
:1054700020D9384605EBC47124F0010C01EB0C1166
:10548000BCF1FE6F02D8F0BCBDE8008124425CBFD5
:1054900001F5801E9EEAC47F02D4F0BCBDE8008105
:1054A000244200F13980A1F1C041F0BCBDE80041C7
:1054B00000F0F0B94FEAD02040EA41504FEAD12144
:1054C0004FEAD22242EA43524FEAD323A7FB028695
:1054D00007FB036605FB02661EEA0E0F58BFA6EB2C
:1054E0000056B6EB00564FEA520E4EEAC37E18EB5A
:1054F0000E0E56EB530EBCD518EB02085E417F1C16
:1055000055F10005B5E74FF480154FF000074FF057
:1055100000064FF00008ACE701F1C04101F0004186
:105520004FF00000F0BCBDE800810CEA131511EA51
:105530000C1F00D00CE013EA0C1F00F026804FF087
:10554000000081EA030101F00041F0BCBDE80081E8
:10555000F0BCBDE8004181EA030100F09BB9F0BC5A
:10556000BDE8004170B500F047F900BF097EFC3E80
:1055700000F007B84FF0000081EA030101F000419C
:10558000704781EA030100F085B9F0BCBDE8004135
:1055900022494FF000007047FFFDFBF9F7F5F4F2E8
:1055A000F0EEEDEBE9E8E6E4E3E1E0DEDDDBDAD8BE
:1055B000D7D5D4D3D1D0CFCDCCCBCAC8C7C6C5C41C
:1055C000C2C1C0BFBEBDBCBBBAB9B8B7B6B5B4B333
:1055D000B2B1B0AFAEADACABAAA9A8A8A7A6A5A41E
:1055E000A3A3A2A1A09F9F9E9D9C9C9B9A999998E2
:1055F0009797969595949393929191908F8F8E8E85
:105600008D8C8C8B8B8A8989888887878685858411
:1056100084838382828181800000FF070000F87FFD
:105620004FEA41034FEA5353A3F58063D3F11E03BE
:10563000C8BFD3F1210C0CDD4FF0004242EAC12279
:1056400042EA505232FA03FC8CEAE17CACEBE170A6
:105650007047102BC4BF0020704703F5787CBCF165
:10566000FF3F04D06FF0004282EA2100704770B51E
:1056700000F0C2F84992248000207047F2E7B0FAA7
:1056800080F310FA03F10AD0C3F11D0303F5806320
:105690004FEA03524FEA415002EBD12170474FF0DD
:1056A0000000704770B5DFF848C11CEA111E1EBF2C
:1056B0001CEA13159EEA0C0F95EA0C0F00F06F80A0
:1056C00081EA03044EEAD47EAE4421EA4C1123EA77
:1056D0004C1341F4801143F48013AEF17F7EA1FBA3
:1056E000024CA0FB0365361955EB0C05A1FB034CDE
:1056F0004CF10003A0FB021C16EB0C06654153F1B4
:105700000003094218BF46F0010613F4007F0BD1D5
:105710004FEA03314FEA053041EA155140EA16508D
:1057200034036FF003020AE04FEAC3214FEAC520B9
:1057300041EA555140EA5650F4026FF0020202EB82
:105740002E4201EB025585EACE710AD05FEA440C85
:1057500018BF24F0004450F1000041F1000120EA9C
:10576000D47040F2FE7C624500D270BDA84214BFE6
:105770004FF080444FF04044002E08BF0024BEF19B
:10578000806FA8BFA1F1C041BDE8704080F2828067
:1057900001F1C04101F000414FF0000070470CEAF8
:1057A00013159EEA0C0F18BF95EA0C0F06D081EA7C
:1057B000030E4FF000000EF0004170BD00F01CF829
:1057C0008900013E00F007B800F009B84FEA430C29
:1057D0005FEA5C5C08D081EA030100F05BB84FEA45
:1057E000410C5FEA5C5CF6D102494FF00000704763
:1057F0000000FF070000F87F0EF1020E2EF0030EEE
:105800005EF8046B364205D4012A43EB030515F517
:10581000001F12D8012841EB010C1CF5001F0CD809
:105820000ED14FEAD17C0CEB4C0C0CF1020C15F5AF
:10583000001F08BF4CEBD37C04E04FF0080C01E0E4
:105840004FEAD37C0CEB4C0526FA05F606F007066A
:10585000B6F1040C06D20EEB860CBDE870404CF09D
:10586000010C6047DFE80CF0090B02024FF0004129
:10587000A1F500214FF0000070BD19461046012827
:1058800051EB010418BFD4F5001484BF002001F0CF
:10589000004170BD0808A0F500114FEA31017047C2
:1058A000FBF704BAFBF738BB000000000000000063
:1058B0003031323334353637383941424344454646
:1058C0004030580030313233343536373839616240
:1058D0006364656640307800040000080000000042
:1058E0000000000200010000103031323334353640
:1058F00037383961626364656678700030313233FD
:105900003435363738394142434445465850000013
:1059100002400000000000A0000000000540000060
:10592000000000C8000000000C4000000000409C87
:1059300000000000194000000020BCBE0000000074
:1059400034400000BFC91B8E00000004B5400000B9
:10595000504BCFD06607E2CF010000006C41000041
:105960003E8251AADFEEA73401000000D9420000B8
:10597000DCB5A0E23A301F97FFFFFFFFB4450000FF
:10598000FD25A0C8E9A3C14FFFFFFFFFFF3F0000B7
:105990000000008000000000FF3F000000000080C9
:1059A00000000000000000000000000001020304ED
:1059B00006070809000000000102030401020203B7
:1059C0000405060708090A0B0C0D0E0F1010200025
:1059D0007475726E206F666620746865206C6564ED
:1059E0000067657454696D650073657454696D650D
:1059F000006C65646F66660066616E6F6666006760
:105A000065742074696D652066726F6D20636C6FBC
:105A1000636B007365742074696D6520746F206317
:105A20006C6F636B007475726E206F6666207468AD
:105A3000652066616E007475726E206F6E207468EA
:105A4000652066616E006C65646F6E0066616E6FE6
:105A50006E00457863657373696E67206461746175
:105A600000000000B05B000800000020680000009B
:105A700028010008185C00086800002010080000D9
:105A8000440100081001000043000000F8FFFFFF80
:105A90000040404040404040404041414141414041
:105AA00040404040404040404040404040404040F6
:105AB0004005020202020202020202020202020285
:105AC000022020202020202020202002020202028A
:105AD00002029090909090901010101010101010E2
